{
  "contractName": "Voting",
  "abi": [
    {
      "inputs": [],
      "payable": false,
      "stateMutability": "nonpayable",
      "type": "constructor"
    },
    {
      "constant": true,
      "inputs": [
        {
          "internalType": "uint256",
          "name": "",
          "type": "uint256"
        }
      ],
      "name": "candidateList",
      "outputs": [
        {
          "internalType": "bytes32",
          "name": "",
          "type": "bytes32"
        }
      ],
      "payable": false,
      "stateMutability": "view",
      "type": "function"
    },
    {
      "constant": true,
      "inputs": [
        {
          "internalType": "bytes32",
          "name": "",
          "type": "bytes32"
        }
      ],
      "name": "votesReceived",
      "outputs": [
        {
          "internalType": "uint8",
          "name": "",
          "type": "uint8"
        }
      ],
      "payable": false,
      "stateMutability": "view",
      "type": "function"
    },
    {
      "constant": true,
      "inputs": [],
      "name": "getHello",
      "outputs": [
        {
          "internalType": "string",
          "name": "",
          "type": "string"
        }
      ],
      "payable": false,
      "stateMutability": "view",
      "type": "function"
    },
    {
      "constant": true,
      "inputs": [
        {
          "internalType": "bytes32",
          "name": "candidate",
          "type": "bytes32"
        }
      ],
      "name": "totalVotesFor",
      "outputs": [
        {
          "internalType": "uint8",
          "name": "",
          "type": "uint8"
        }
      ],
      "payable": false,
      "stateMutability": "view",
      "type": "function"
    },
    {
      "constant": false,
      "inputs": [
        {
          "internalType": "bytes32",
          "name": "candidate",
          "type": "bytes32"
        }
      ],
      "name": "voteForCandidate",
      "outputs": [],
      "payable": false,
      "stateMutability": "nonpayable",
      "type": "function"
    },
    {
      "constant": true,
      "inputs": [
        {
          "internalType": "bytes32",
          "name": "candidate",
          "type": "bytes32"
        }
      ],
      "name": "validCandidate",
      "outputs": [
        {
          "internalType": "bool",
          "name": "",
          "type": "bool"
        }
      ],
      "payable": false,
      "stateMutability": "view",
      "type": "function"
    }
  ],
  "bytecode": "0x608060405234801561001057600080fd5b506040518060400160405280600b81526020017f68656c6c6f20776f726c640000000000000000000000000000000000000000008152506000908051906020019061005c92919061013a565b5060028060018154018082558091505090600182039060005260206000200160007f7a68616e670000000000000000000000000000000000000000000000000000009091909150555060028060018154018082558091505090600182039060005260206000200160007f62696e00000000000000000000000000000000000000000000000000000000009091909150555060028060018154018082558091505090600182039060005260206000200160007f6368656e67000000000000000000000000000000000000000000000000000000909190915055506101df565b828054600181600116156101000203166002900490600052602060002090601f016020900481019282601f1061017b57805160ff19168380011785556101a9565b828001600101855582156101a9579182015b828111156101a857825182559160200191906001019061018d565b5b5090506101b691906101ba565b5090565b6101dc91905b808211156101d85760008160009055506001016101c0565b5090565b90565b61042d806101ee6000396000f3fe608060405234801561001057600080fd5b50600436106100625760003560e01c80632f265cf714610067578063392e6678146100af5780637021939f146100f55780638da9b7721461013d578063b13c744b146101c0578063cc9ab26714610202575b600080fd5b6100936004803603602081101561007d57600080fd5b8101908080359060200190929190505050610230565b604051808260ff1660ff16815260200191505060405180910390f35b6100db600480360360208110156100c557600080fd5b810190808035906020019092919050505061026c565b604051808215151515815260200191505060405180910390f35b6101216004803603602081101561010b57600080fd5b81019080803590602001909291905050506102c2565b604051808260ff1660ff16815260200191505060405180910390f35b6101456102e2565b6040518080602001828103825283818151815260200191508051906020019080838360005b8381101561018557808201518184015260208101905061016a565b50505050905090810190601f1680156101b25780820380516001836020036101000a031916815260200191505b509250505060405180910390f35b6101ec600480360360208110156101d657600080fd5b8101908080359060200190929190505050610384565b6040518082815260200191505060405180910390f35b61022e6004803603602081101561021857600080fd5b81019080803590602001909291905050506103a5565b005b600061023b8261026c565b61024457600080fd5b6001600083815260200190815260200160002060009054906101000a900460ff169050919050565b600080600090505b6002805490508110156102b757826002828154811061028f57fe5b906000526020600020015414156102aa5760019150506102bd565b8080600101915050610274565b50600090505b919050565b60016020528060005260406000206000915054906101000a900460ff1681565b606060008054600181600116156101000203166002900480601f01602080910402602001604051908101604052809291908181526020018280546001816001161561010002031660029004801561037a5780601f1061034f5761010080835404028352916020019161037a565b820191906000526020600020905b81548152906001019060200180831161035d57829003601f168201915b5050505050905090565b6002818154811061039157fe5b906000526020600020016000915090505481565b6103ae8161026c565b6103b757600080fd5b600180600083815260200190815260200160002060008282829054906101000a900460ff160192506101000a81548160ff021916908360ff1602179055505056fea265627a7a7231582007bb1c3778641cec8d4f2eb9555cae3e555fa924d17feb328d083c3b28b8d58a64736f6c63430005100032",
  "source": "pragma solidity ^0.5.0;\n\ncontract Voting {\n  string hello;\n\n  mapping (bytes32 => uint8) public votesReceived;\n\n  bytes32[] public candidateList;\n\n\n\n  constructor() public {\n\n    hello = \"hello world\";\n\n    candidateList.push(\"zhang\");\n\n    candidateList.push(\"bin\");\n\n    candidateList.push(\"cheng\");\n\n  }\n\n function getHello() public view returns (string memory) {\n    return hello;\n }\n\n  function totalVotesFor(bytes32 candidate) view public returns (uint8) {\n\n    require(validCandidate(candidate));\n\n    return votesReceived[candidate];\n\n  }\n\n\n\n  function voteForCandidate(bytes32 candidate) public {\n\n    require(validCandidate(candidate));\n\n    votesReceived[candidate] += 1;\n\n  }\n\n\n\n  function validCandidate(bytes32 candidate) view public returns (bool) {\n\n    for(uint i = 0; i < candidateList.length; i++) {\n\n      if (candidateList[i] == candidate) {\n\n        return true;\n\n      }\n\n    }\n\n    return false;\n\n  }\n\n}\n",
  "sourcePath": "/Users/sg99012ml/Project/own/node/truffle-Voting/contracts/Voting.sol",
  "compiler": {
    "name": "solc",
    "version": "0.5.16+commit.9c3226ce.Emscripten.clang"
  },
  "schemaVersion": "3.4.1",
  "updatedAt": "2021-07-30T00:49:37.981Z",
  "devdoc": {
    "methods": {}
  },
  "userdoc": {
    "methods": {}
  }
}